:100000000000042021050000910500009305000078
:100010009505000097050000990500009B0500006C
:100020000000000000000000000000009D0500002E
:100030009F05000000000000A1050000A3050000CE
:10004000A5050000A505000000000000A5050000B2
:1000500000000000A50500000000000000000000F6
:10006000A5050000A5050000A5050000A5050000E8
:10007000A5050000A5050000A5050000A5050000D8
:10008000A5050000A505000000000000000000001C
:10009000A5050000A505000000000000000000000C
:1000A000A5050000A5050000A5050000A5050000A8
:1000B000A5050000A5050000A5050000A505000098
:1000C000A5050000A5050000A5050000A505000088
:1000D000A505000000000000A505000000000000CC
:1000E000A505000000000000A5050000A505000012
:1000F00000000000A505000000000000A5050000AC
:10010000000000000000000000000000A505000045
:10011000A505000000000000A5050000A5050000E1
:1001200000000000A5050000000000000000000025
:1001300000000000000000000000000000000000BF
:1001400000000000000000000000000000000000AF
:10015000A5050000000000000000000000000000F5
:10016000000000000000000000000000000000008F
:10017000000000000000000000000000000000007F
:10018000000000000000000000000000000000006F
:10019000000000000000000000000000000000005F
:0C040000626C697A7A6172645F0000002F
:08040C0098000000010000004F
:100414000348044B834202D0034B03B1184770478F
:100424000C0000200C00002000000000064B0749CF
:10043400C91A891048BF0131491003D0044B0BB1CC
:1004440001481847704700BF0C0000200C00002032
:100454000000000010B5064C237843B9FFF7D8FF1D
:10046400044B13B10448AFF300800123237010BD83
:100474000C00002000000000EC0C000008B5054B47
:100484001BB105490548AFF30080BDE80840FFF7FC
:10049400CDBF00BF0000000010000020EC0C0000E5
:1004A400A3F5803A704700BF174B002B08BF134BCE
:1004B4009D46FFF7F5FF00218B460F461348144A6B
:1004C400121A00F0D3FB0E4B002B00D098470D4BB3
:1004D400002B00D098470020002104000D000D4897
:1004E400002802D00C48AFF3008000F0C7FB2000C6
:1004F400290000F073FB00F0A7FB00BF0000080018
:100504000000000000000000000004200C00002097
:100514002C00002000000000000000000F49104AD9
:10052400104B00F010F81049104A114B00F00BF872
:100534001049114A114B00F006F81149114A124BA7
:1005440000F001F806E0521A03DD043A9858885086
:10055400FBDC704700F0FEF9FFF7A6FF0000002067
:100564000C000020380D00000C0000200C000020BE
:10057400440D00000C0000200C000020440D00007D
:100584000C0000200C000020440D0000FEE7FEE7F4
:10059400FEE7FEE7FEE7FEE7FEE7FEE7FEE7FEE72F
:1005A400FEE700BF80B483B000AF154B1B687B60CF
:1005B400144B1B683B607B68072B19D13B68023BDB
:1005C400032B13D801A252F823F000BFE105000069
:1005D400E5050000E9050000ED050000012308E041
:1005E400002306E0002304E0002302E0002300E0EF
:1005F400002318460C37BD465DF8047B704700BFE6
:100604003001FF003401FF0080B483B000AF154B0C
:100614001B687B60144B1B683B607B68072B19D1FC
:100624003B68023B032B13D801A252F823F000BF0E
:1006340045060000490600004D0600005106000072
:10064400012308E0012306E0002304E0002302E084
:10065400002300E0002318460C37BD465DF8047BF8
:10066400704700BF3001FF003401FF0080B483B045
:1006740000AF154B1B687B60144B1B683B607B68A9
:10068400072B19D13B68023B032B13D801A252F864
:1006940023F000BFA9060000AD060000B10600006B
:1006A400B5060000012308E0002306E0002304E06F
:1006B400002302E0002300E0002318460C37BD4667
:1006C4005DF8047B704700BF3001FF003401FF0078
:1006D40080B483B000AF154B1B687B60144B1B6860
:1006E4003B607B68072B19D13B68023B032B13D873
:1006F40001A252F823F000BF0D070000110700000B
:100704001507000019070000012308E0012306E093
:10071400012304E0012302E0012300E00023184642
:100724000C37BD465DF8047B704700BF3001FF0005
:100734003401FF0080B483B000AF154B1B687B60AD
:10074400144B1B683B607B68072B19D13B68023B49
:10075400032B13D801A252F823F000BF7107000045
:1007640075070000790700007D070000012308E0F9
:10077400002306E0002304E0002302E0002300E05D
:10078400002318460C37BD465DF8047B704700BF54
:100794003001FF003401FF0080B483B000AF154B7B
:1007A4001B687B60144B1B683B607B68072B19D16B
:1007B4003B68023B032B13D801A252F823F000BF7D
:1007C400D5070000D9070000DD070000E10700009D
:1007D400012308E0002306E0002304E0002302E0F4
:1007E400002300E0002318460C37BD465DF8047B67
:1007F400704700BF3001FF003401FF0080B483B0B4
:1008040000AF154B1B687B60144B1B683B607B6817
:10081400072B19D13B68023B032B13D801A252F8D2
:1008240023F000BF390800003D0800004108000023
:1008340045080000012308E0002306E0002304E04B
:10084400002302E0002300E0002318460C37BD46D5
:100854005DF8047B704700BF3001FF003401FF00E6
:1008640080B483B000AF154B1B687B60144B1B68CE
:100874003B607B68072B19D13B68023B032B13D8E1
:1008840001A252F823F000BF9D080000A108000057
:10089400A5080000A9080000012308E0012306E0E0
:1008A400012304E0012302E0012300E000231846B1
:1008B4000C37BD465DF8047B704700BF3001FF0074
:1008C4003401FF0080B483B000AF154B1B687B601C
:1008D400144B1B683B607B68072B19D13B68023BB8
:1008E400032B13D801A252F823F000BF0109000022
:1008F40005090000090900000D090000002308E0B3
:10090400002306E0002304E0012302E0012300E0C9
:10091400002318460C37BD465DF8047B704700BFC2
:100924003001FF003401FF0080B400AF074B084AD8
:100934001B68C2F84435054B054ADB69C2F84C35DF
:1009440000BFBD465DF8047B704700BF0080FF0018
:100954000060005080B582B000AFFFF74FFF034640
:10096400002B0CD0734B1B68002B08D1714B0D224C
:100974001A60714B01221A606F4B00221A60002327
:100984007B6000237B6011E04FF47F024FF47F0112
:100994007B68603351F8333019467B686033DB0081
:1009A40013445B680B607B6801337B607B681F2B9F
:1009B40008D84FF47F027B68603352F83330B3F1C8
:1009C400FF3FE1D1FFF7B6FE0346002B05D05B4B9A
:1009D40029221A605A4B03221A60FFF7E3FD0346EB
:1009E400002B07D0574B584A1A604FF0502301226E
:1009F400C3F85825FFF708FE0346002B02D0534BDB
:100A040000221A60FFF732FE0346002B11D04FF08C
:100A14005023D3F8003403F00103002B09D04FF026
:100A240050230022C3F814214FF050230022C3F8AE
:100A34001821FFF74DFE0346002B0DD04FF0502335
:100A4400D3F8003403F00103002B05D04FF05023FA
:100A54006FF00102C3F80024FFF79EFE0346002B4B
:100A640002D0364B65221A60FFF7FAFE0346002BCC
:100A740021D0374B1B68002B1DDA4FF05023032283
:100A8400C3F818254FF0502301229A6000BF4FF09D
:100A94005023D3F80431002BF9D04FF05023002217
:100AA400C3F804214FF050230122DA604FF05023A1
:100AB4000122C3F81825FFF705FF0346002B1AD0BF
:100AC4001E4B7E221A60234B7E221A60224B7F2209
:100AD4001A60224B00221A60214B00221A60214B1B
:100AE40000221A60204B00221A60204B00221A6058
:100AF4001F4B00221A6000F03FF81E4BD3F88C30D5
:100B04001C4A43F44063C2F88C30FFF70DFF194BC5
:100B1400D3F88830174A43F47003C2F88830BFF31F
:100B24004F8F00BFBFF36F8F00BF00BF0837BD46B4
:100B340080BD00BF204A00501C4900500C470050A3
:100B44003C470050309503504400EFBE4C25035001
:100B5400202403503C49005018210050049E0350A7
:100B6400089E035010111050242100502C210050D5
:100B7400A012205000ED00E080B485B000AF144B0B
:100B8400FB60144BBB604FF47F037B6007E0FA68A3
:100B9400131FFB60BB68191FB96012681A60FA68FA
:100BA4007B689A42F3D23F233B600B4A3B6803F5D0
:100BB400E07352F82330084923F010023B6803F530
:100BC400E07341F823201437BD465DF8047B704779
:100BD400FC0FFF00FCFF07200030005080B487B0FA
:100BE40000AF00237B6101233B610223FB60134BB5
:100BF400BB60134B7B60134B3B600BE007227B69AC
:100C040013447B6101223B6913443B610422FB686A
:100C14001344FB605F227B69934207DA5F223B69DE
:100C2400934203DA5F22FB689342E7DB0023184612
:100C34001C37BD465DF8047B704700BF000400000C
:100C4400000000200804000008B5064B044613B158
:100C54000021AFF30080044B1B6803B19847204682
:100C640000F030F800000000280000200244034691
:100C7400934200D1704703F8011BF9E770B50D4D9D
:100C840000260D4C641BA410A64209D10B4D00266E
:100C94000B4C00F019F8641BA410A64205D170BDDA
:100CA40055F8043B01369847EEE755F8043B013606
:100CB4009847F2E7D80C0000D80C0000D80C0000CC
:100CC400DC0C0000FEE700BFF8B500BFF8BC08BCB0
:100CD4009E46704781040000F8B500BFF8BC08BC0C
:0C0CE4009E46704759040000000000000C
:100CF000380D00000000002003000000440D00003B
:100D00000C00002000000000440D00000C0000203A
:100D100000000000440D00000C0000200000000056
:100D20000C000020080000002C0000200000000043
:080D30002C000020000000006F
:0C0D3800626C697A7A617264000000004D
:0400000300000521D3
:00000001FF
